:020000040800F2
:1000000048040020C1010008130A0008370900084D
:10001000110A0008AB020008C90F00080000000028
:10002000000000000000000000000000A90B000814
:10003000B707000800000000910A0008810C0008C2
:10004000DB010008DB010008DB010008DB01000820
:10005000DB010008DB010008DB010008DB01000810
:10006000DB010008DB010008DB010008DB01000800
:10007000DB010008DB010008DB010008DB010008F0
:10008000DB010008DB010008DB010008DB010008E0
:10009000AD020008DB010008DB010008DB010008FD
:1000A000DB010008D50C0008DB010008DB010008BB
:1000B000DB010008DB010008DB010008DB010008B0
:1000C000DB010008DB010008DB010008DB010008A0
:1000D000DB010008DB010008DB010008DB01000890
:1000E000DB010008DB010008DB010008DB01000880
:1000F000DB010008DB010008DB010008DB01000870
:10010000DB010008DB010008DB010008DB0100085F
:10011000DB010008DB010008DB010008DB0100084F
:10012000DB010008DB010008DB010008DB0100083F
:10013000DB010008DB010008DB010008DB0100082F
:10014000DB010008DB010008DB010008DB0100081F
:10015000DB010008DB010008DB010008DB0100080F
:10016000DB010008DB010008DB010008DB010008FF
:10017000DB010008DB010008DB010008DB010008EF
:10018000DB010008DB010008DB010008DB010008DF
:10019000DB010008DB010008DB010008DB010008CF
:1001A000DB010008DB010008DB010008DFF80CD0F0
:1001B00000F04AF800480047951400084804002061
:1001C0000648804706480047FEE7FEE7FEE7FEE7F1
:1001D000FEE7FEE7FEE7FEE7FEE7FEE7850C000828
:1001E000AD0100082DE9F05F0546002092469B46D0
:1001F00088460646814640241BE02846414647463D
:10020000224600F042F853465A46C01A914110D394
:1002100011461846224600F029F82D1A67EB01080E
:100220004F4622460120002100F020F817EB00097C
:100230004E41201EA4F10104DFDC484631462A4627
:100240004346BDE8F09F0000064C074D06E0E0681D
:1002500040F0010394E8070098471034AC42F6D30D
:10026000FFF7A8FF1016000830160008202A04DB4C
:10027000203A00FA02F1002070479140C2F12003B9
:1002800020FA03F3194390407047202A04DB203AF8
:1002900021FA02F00021704721FA02F3D040C2F1A6
:1002A00020029140084319467047FEE710B5044A02
:1002B0000021044800F0C0F903490120086010BD86
:1002C00034000020006400401000002010B500F051
:1002D000B1F800F09DF900F06DF9BDE8104000F0B4
:1002E00087B8000010B50C4988420AD101214C069C
:1002F000204600F0EBFB2046BDE81040002100F056
:10030000E5BB01218C06204600F0E0FB2046BDE85D
:100310001040002100F0DABB00640040F0B5827AA2
:1003200001219140304C226842F0010222602E4DA2
:100330001C352A688A432A602B4A067B0C322B4BD9
:10034000002E14D116688E4316604688C78846EA88
:100350000746877A03EBC707C7F840660688878891
:1003600046EA0746877A03EBC707C7F84466067B69
:10037000012E14D116680E4316604288068842EAA0
:100380000642867A03EBC606C6F84026C2888688EF
:1003900042EA0642867A03EBC603C3F84426124AB1
:1003A000C37A121D3BB113680B4313600E4A0389D5
:1003B000143223B106E013688B431360F6E7136829
:1003C0008B4313600389012B02D113680B43136025
:1003D000407B012802D1286808432860206820F06B
:1003E00001002060F0BD0000006600400060004099
:1003F0001FB500208DF80A008DF80B0001218DF843
:100400000C1042F26042ADF80020ADF80200ADF8E9
:100410000400ADF80600ADF808008DF80D10684630
:10042000FFF77CFF01220221014800F037F81FBDD1
:10043000006400402DE9FF410121022000F02AFB69
:10044000154F09220821384600F05CFA09221146AE
:10045000384600F057FA7815029002248DF80C40C7
:100460008DF80D4000268DF80E6001258DF80F5097
:1004700002A9384600F008FAE00100908DF8044027
:100480008DF805408DF806608DF8075069463846AE
:1004900000F0FAF9BDE8FF8100040240002A03D011
:1004A00042690A434261704742698A434261704728
:1004B00010B50022036823F002030360036843F0D1
:1004C000010303604FF6FF7300E0521C4468E40729
:1004D00001D19A42F9D14268D2073ED08A79012AE5
:1004E0003DD0026822F080020260CA79012A3BD026
:1004F000026822F0400202600A7A012A39D00268BA
:1005000022F0200202604A7A012A37D0026822F0E3
:10051000100202608A7A012A35D0026822F00802AD
:100520000260CA7A012A33D0026822F00402026013
:100530008A78CC78920742EA04620C7942EA044253
:100540004C79098842EA0452491E0A43C261016893
:1005500021F001010160002120E0002010BD0268AF
:1005600042F080020260C0E7026842F0400202608E
:10057000C2E7026842F020020260C4E7026842F06B
:1005800010020260C6E7026842F008020260C8E793
:10059000026842F004020260CAE7491C4268D207BE
:1005A00001D09942F9D14068C00701D0002010BDA8
:1005B000012010BD3EB50121480600F079FA134C28
:1005C0002046FFF78FFE684600F08AF800218DF87C
:1005D000061001228DF807208DF808208DF80910EB
:1005E0008DF80A108DF80B108DF802108DF803208D
:1005F00004208DF8040002208DF805000520ADF8D8
:10060000000069462046FFF753FF3EBD00640040EE
:1006100008B54FF4C06000F031FA14208DF80000E6
:1006200000208DF8010001208DF802008DF80300F4
:10063000684600F0EFF908BD10B500EB0113D3F8E0
:10064000B04104F004041472002C2CD0D3F8B04153
:10065000E408546003F5D8731C6804F00204547273
:100660005C6804F00F0494725C68240AD4749C687B
:10067000D4729C68240A14739C68240C54739C687C
:10068000240E9473DC68D473DC68240A1474DC6868
:10069000240C5474DB681B0E937449B1016941F05A
:1006A0002001016110BDD3F8B041640D1460D1E7A1
:1006B000C16841F02001C16010BD10B5002240F2B8
:1006C0002313036000234360037243720823837281
:1006D00084188B5CE372521CD2B2082AF8D310BD86
:1006E00000218171C171017241728172C172817088
:1006F000C170032101710221417101210180704704
:1007000030B50246002093685B010AD4906800016E
:1007100001D5012005E09068C00001D5022000E06D
:10072000042004283BD002EB0012D2F8803103F001
:100730000103C2F880310B7A93B3D2F880414D683F
:100740001C434B7A43EAC5031C43C2F880418B7AB1
:1007500003F00F038B7202F5C072536823F00F038E
:10076000536053688C7A23435360CB7A8C7B0D7B28
:1007700043EA04634C7B240444EA05242343936046
:10078000CB7B8C7C43EA04634C7C097C240444EAE4
:1007900001210B43D360116841F00101116030BDAC
:1007A000FFE7D2F880314C7A23430C8843EA445364
:1007B000C2F88031CBE7704770B586B0012108469A
:1007C00000F068F90121102000F08EF91E4E07227A
:1007D0000A21304600F096F807220921304600F041
:1007E00091F800248DF8164001208DF8170002259D
:1007F0008DF81450410204918DF8155004A930462B
:1008000000F042F88DF814506802049004A93046B4
:1008100000F03AF84FF4E1300090ADF80440ADF844
:100820000640ADF80840ADF80C400C20ADF80A00C9
:10083000064C6946204600F065FB0121204600F089
:100840004DFB06B070BD00000000024000100140EA
:1008500000B502464FF47A7302E0184600F004F83F
:10086000521E501CF9D100BD00EBC000C1004FF07A
:10087000E020416100218161052101610169C90315
:10088000FCD50421016170472DE9F04100220127C8
:100890004FF0030C07FA02F50B682B40AB422CD14A
:1008A000066853000CFA03F4A64306600E79D0F8EC
:1008B00000809E4046EA080606600E79012E01D0AF
:1008C000022E12D18668A64386604E79D0F8088041
:1008D0009E4046EA080686604668AE434660456824
:1008E0008E799640B6B235434560C568A543C5606C
:1008F000CC799C40C3681C43C460521C102AC9D3E5
:10090000BDE8F08110B54B07DB0E9A40C90800EB3B
:100910008100016A0F249C40A1430162016A1143D6
:10092000016210BD0246002012690A4200D0012077
:10093000704741837047FEE71CB50121812000F01C
:10094000A9F80820009000208DF804008DF8070019
:1009500069460548FFF798FF012000906946034863
:10096000FFF792FF1CBD0000001C02400000024087
:1009700070B504460D4629462046FFF7D3FF0128EF
:1009800001D0002070BD29462046FFF7CBFF01288B
:10099000F9D0012070BD00002DE9FC4101218A2021
:1009A00000F078F80226009601218DF8041000204E
:1009B0008DF806008DF807108DF80500694611487E
:1009C000FFF762FFB40200940F4F69463846FFF705
:1009D0005BFF6500009569463846FFF755FF0094B8
:1009E0000A4F69463846FFF74FFF06481830068021
:1009F000054918310C800D8021463846FFF799FFD4
:100A0000BDE8FC8100040240001C0240000C0240D2
:100A1000FEE7704730B50F23C27801250178002A20
:100A20001FD0154A126802F4E062C2F5E062C2F318
:100A30000722C2F10404D3404278A24084781C40CB
:100A40001443220101F1E02181F80024007800F034
:100A50001F018D404009800000F1E020C0F80051E6
:100A600030BD01F01F0085404809800000F1E02002
:100A7000C0F8805130BD00000CED00E00249084391
:100A800002490860704700000000FA050CED00E024
:100A900070470000054A002903D011680143116026
:100AA0007047116881431160704700003038024080
:100AB000054A002903D0116801431160704711688D
:100AC000814311607047000040380240054A002908
:100AD00003D01168014311607047116881431160B0
:100AE0007047000020380240054A002903D01168F1
:100AF0000143116070471168814311607047000025
:100B00004438024070B5244B196801F00C01234CA5
:100B100000291ED0224E04291DD008291DD00460B2
:100B2000196801F0F00109091E4A545C0168E140AE
:100B300041601C6804F4E054A40A145D21FA04F432
:100B400084601B6803F460435B0BD25CD140C160DE
:100B500070BD0460E4E70660E2E70F4A121F116807
:100B6000C1F38055116801F03F0135B1B6FBF1F1D9
:100B70001468C4F38814614305E0B4FBF1F1146810
:100B8000C4F3881461431268C2F30142521C52003C
:100B9000B1FBF2F10160C3E7083802400024F40021
:100BA00040787D0100000020704700001CB5002146
:100BB000019100912E4A106840F4803010604FF48B
:100BC000A043106800F4003000900198401C019090
:100BD000009810B901989842F3D11068800302D5AB
:100BE0000120009000E00091009801283FD12048AA
:100BF0004030016841F0805101601E49086840F4AE
:100C0000404008601A48083003680360036843F4F2
:100C100000430360036843F4A0530360041F164BB2
:100C20002360136843F08073136013689B01FCD545
:100C30000A6842F480320A604A68D203FCD50A6826
:100C400042F400320A604A689203FCD50B4A40F233
:100C500005711160016821F003010160016841F034
:100C6000020101600168C1F381010229FAD11CBDB2
:100C70000038024000700040195A4007003C024012
:100C80007047000010B50F48016841F00101016094
:100C90000C4A00210832116002680B4B1A400260B6
:100CA000031D0A4A1A60026822F480220260054885
:100CB0000C300160FFF77AFF05494FF000600860D3
:100CC00010BD000000380240FFFFF6FE1030002487
:100CD00008ED00E02DE9F0411E4F0121384600F0FB
:100CE000A4F8002834D01C491C48FFF709FD1CA0BB
:100CF00000F06CF9184801681EA000F067F9164E64
:100D00000B3621A000F062F920A000F05FF91EA0D0
:100D100000F05CF900240A25315D1FA000F056F9AF
:100D2000611C91FBF5F005FB101010B91CA000F040
:100D30004DF9641C082CEFDB19A000F047F918A04E
:100D400000F044F93846BDE8F041012100F05EB8FA
:100D5000BDE8F08100000140200000200064004058
:100D60000D0AB7A2CBCDB5C4B1A8CEC4CEAAA3BA42
:100D7000000000000D0A204944BAC5537464496458
:100D8000A3BA3078257820000D0A000043414E2098
:100D9000446174613A0A0000253032782020200036
:100DA0000A0000007FB501210846FFF79DFE164DA1
:100DB000284600F050F80024ADF80840ADF8024095
:100DC00042F20F71019144F24F60ADF800008DF8CE
:100DD0000A406946284600F043F801221146284699
:100DE00000F02FF819208DF80C0001208DF80F006D
:100DF0008DF80D408DF80E4003A8FFF70BFE012182
:100E0000284600F006F87FBD00000140C94301827A
:100E10007047002904D0018841F00101018070472A
:100E2000018821F001010180704702460020138AE9
:100E30000B4092890A40002B02D0002A00D00120EA
:100E40007047002A03D082890A43828170478289D1
:100E50008A4382817047018921F00701018170472F
:100E600030B50288164C174DA0420DD0A8420BD0C9
:100E7000B0F1804F08D0144B984205D0134B9842E4
:100E800002D0134B984203D122F070034A881A43D0
:100E9000104B984206D0104B984203D022F4407376
:100EA0000A891A4302804A68C2620A880285A042FF
:100EB00001D0A84201D1897A01860121818230BD09
:100EC0000000014000040140000400400008004010
:100ED000000C00400010004000140040002904D025
:100EE000818941F4005181817047818921F4005149
:100EF000818170470246002012880A4200D00120FA
:100F0000704700007FB504460D46208A20F440510A
:100F1000E88808432082A08941F20C618843A988AF
:100F20002A8911436A8902431143A181A08A20F4CE
:100F30004071A8890843A0826846FFF7E3FD1E4878
:100F4000844202D01D48844201D1039800E00298F7
:100F5000A189090408D500EBC00101EB0010296844
:100F60004900B0FBF1F007E000EBC00101EB00101D
:100F700029688900B0FBF1F06422B0FBF2F10901AD
:100F80000B096FF018056B4300EB8300A3891D0468
:100F90004FF0320307D503EBC000B0FBF2F000F0D6
:100FA0000700084306E003EB0010B0FBF2F000F08E
:100FB0000F00084320817FBD001001400014014054
:100FC000C1F3080181807047FEE700000FB4054BB4
:100FD00010B503A9044A029800F018F810BC5DF897
:100FE00014FB0000711400081C00002002E008C877
:100FF000121F08C1002AFAD170477047002001E093
:1010000001C1121F002AFBD1704700002DE9FF4FDC
:101010008DB00F460546002606E025280BD0DDE9F9
:101020000F1290476D1C761C28780028F5D111B05E
:101030003046BDE8F08F0024A246A1460122EC49CB
:1010400000E0044315F8013F203B02FA03F0084298
:10105000F7D128782A2810D06FF02F022878A0F135
:101060003001092914D80AEB8A0102EB410144F04E
:10107000020400EB010A6D1CF0E701CF5FEA000AF1
:1010800003D544F40054CAF1000A44F002046D1C74
:1010900028782E2817D115F8010F44F004042A28C7
:1010A0000ED06FF02F022878A0F1300109290AD85C
:1010B00009EB890102EB410100EB01096D1CF2E72C
:1010C00057F8049B6D1C28786C280FD006DC4C2840
:1010D00017D068280DD06A2814D104E0742810D0E5
:1010E0007A280FD10DE044F400140AE044F480148F
:1010F00001E044F440146978814202D104F580147F
:101100006D1C6D1C2A786E2A1FD00CDC632A31D02E
:1011100004DC002A8BD0582A11D1A3E0642A68D0BD
:10112000692A0CD165E0732A2ED004DC6F2A73D0B3
:10113000702A04D19BE0752A6FD0782A6ED01046B1
:10114000DDE90F129047761C50E1C4F302500228EB
:1011500006D0032809D0042801CF09D0066045E154
:1011600001CFF117C0E9006140E101CF06803DE108
:1011700006703BE117F8040B8DF8000000208DF895
:101180000100EB46012003E057F804BB4FF0FF30AD
:1011900061074FF0000102D40DE008F1010188461B
:1011A00049450FDA8045F8DB1BF808100029F4D117
:1011B00008E008F1010188468142FADB1BF80810BB
:1011C0000029F6D1DDE90F23AAEB0800814621466C
:1011D00000F036F9304400EB080604E0DDE90F12B8
:1011E0001BF8010B9047B8F10108F7D22146484699
:1011F000F7E00A21C4F302534FF0000B0891022BD1
:1012000004D001CFC117032B09D00AE0FF1D27F03E
:101210000707F7E8020108E032E01FE020E000B233
:10122000C117042B01D140B2C117031E71F1000395
:1012300007DA4FF0000CD0EB0C006CEB01012D2312
:1012400002E0230504D52B238DF82430012303E08D
:10125000E30701D02023F7E7984658E00A2110E081
:1012600010210EE010204FF0000B08900CE0102130
:101270004FF0000B44F004044FF00809089103E01C
:1012800008214FF0000B0891C4F30253022B04D045
:1012900001CF0021032B06D006E0FF1D27F0070732
:1012A000F7E8020103E080B2042B00D1C0B24FF096
:1012B000000823072BD5702A07D0DDF820C08CF05A
:1012C000100C5CEA0B0C05D00EE040238DF82430A6
:1012D000012308E050EA010306D030238DF82430C2
:1012E0008DF8252002239846DDF820C08CF0080CEC
:1012F0005CEA0B0C0BD150EA010301D1630706D560
:1013000030238DF824304FF00108A9F10109582A43
:1013100004D038A20B9208AA0A920BE03AA2F9E78D
:101320005B46089AFEF75EFF0B9B9B5C0A9A521E77
:101330000A92137050EA0102F2D10A98ADEB000054
:1013400000F1200B600702D524F4803401E04FF057
:101350000109D94502DDA9EB0B0000E0002000EBFC
:101360000B0141440890AAEB010AE00306D4DDE931
:101370000F232146504600F063F806444FF0000961
:1013800008E009A911F80900DDE90F12904709F1F9
:101390000109761CC145F4DBE0030CD5DDE90F2320
:1013A0002146504600F04CF8064404E0DDE90F12F7
:1013B00030209047761C0899481E08900029F5DCDB
:1013C00008E00A980A990078491C0A91DDE90F1291
:1013D0009047761CBBF10001ABF1010BF1DC21461B
:1013E0005046DDE90F2300F019F806446D1C1BE69A
:1013F00009280100303132333435363738396162EB
:1014000063646566000000003031323334353637AE
:101410003839414243444546000000002DE9F0417F
:10142000044600251E461746880404D405E03946C4
:101430002020B0476D1C641EF9D52846BDE8F08118
:101440002DE9F041044600251E469046C80301D50B
:10145000302700E02027880404D505E041463846BF
:10146000B0476D1C641EF9D52846BDE8F081000028
:1014700070B50446064DE1B22846FFF7A1FD802174
:101480002846FFF737FD0028F9D0204670BD000040
:1014900000100140FFF780FAFFF78EF9FFF74CFAD2
:1014A000FEF714FFFFF77EFC3C4F3D4E0A253C49FA
:1014B0003C48091DFFF701F901213846FFF758FAAA
:1014C000012837D137493848FFF71AF96420FFF768
:1014D000BFF936A0FFF77AFD3248016839A0FFF75F
:1014E00075FDDFF8C08008F10B083BA0FFF76EFD2B
:1014F0003AA0FFF76BFD38A0FFF768FD00243AA083
:1015000018F80410FFF762FD611C91FBF5F005FB74
:10151000101010B936A0FFF759FD641C082CEEDB43
:1015200033A0FFF753FD32A0FFF750FD02213148F1
:10153000FFF7FFF930680128B9D12FA0FFF746FD6A
:101540001848143001681FA0FFF740FDDFF85480F1
:1015500008F11F0820A0FFF739FD20A0FFF736FD96
:101560001DA0FFF733FD00241FA018F80410FFF79B
:101570002DFD611C91FBF5F005FB101010B91CA0AE
:10158000FFF724FD641C082CEEDB19A0FFF71EFDFD
:1015900017A0FFF71BFD0020306088E70000024025
:1015A0001000002020000020006400400D0AB7A2B7
:1015B000CBCDB5C4B1A8CEC4C4DAC8DDCEAAA3BA17
:1015C000000000000D0A204944BAC5537464496400
:1015D000A3BA3078257800000D0A000043414E2060
:1015E000446174613A0A00002530327820202000DE
:1015F0000A000000000402400D0ABDD3CAD5B5C4DC
:10160000B1A8CEC4C4DAC8DDCEAAA3BA00000000D7
:10161000301600080000002020000000EC0F000839
:10162000501600082000002028040000FC0F0008CD
:101630000000000001020304010203040607080978
:10164000000000000001020304050607000000007E
:04000005080001AD41
:00000001FF
